:020000040800F2
:10000000D806002099010008D7130008A51200089F
:10001000D513000849070008CB17000800000000AE
:10002000000000000000000000000000ED150008C6
:100030004B07000800000000D9130008EF15000866
:10004000B3010008B3010008B3010008B3010008C0
:10005000B3010008B30100084D070008530700086A
:1000600059070008B3010008B3010008B3010008F4
:10007000B3010008B3010008B3010008B301000890
:10008000B3010008B3010008B3010008B301000880
:10009000B3010008B3010008B3010008B301000870
:1000A000B3010008B3010008B3010008B301000860
:1000B000B3010008B3010008B3010008B301000850
:1000C000B3010008B3010008B3010008B301000840
:1000D000B3010008B3010008B3010008B301000830
:1000E000B3010008B3010008B301000800F002F8F2
:1000F00000F043F80AA090E8000C82448344AAF17F
:100100000107DA4501D100F038F8AFF2090EBAE87C
:100110000F0013F0010F18BFFB1A43F0010318473B
:100120003818000058180000103A24BF78C878C169
:10013000FAD8520724BF30C830C144BF04680C60ED
:10014000704700000023002400250026103A28BF35
:1001500078C1FBD8520728BF30C148BF0B60704739
:10016000642900F0D780002070471FB59DE8030088
:1001700000F072F91FBD10B510BD00F041FA114634
:10018000FFF7F3FF01F03AFB00F05FFA03B4FFF76B
:10019000F2FF03BC00F090FA094880470948004785
:1001A000FEE7FEE7FEE7FEE7FEE7FEE7FEE7FEE727
:1001B000FEE7FEE704480549054A064B7047000084
:1001C00051160008ED000008D8000020D8060020D5
:1001D000D8020020D802002070B5064600F020F9B1
:1001E000056806F10B0020F00704B4429CBF002014
:1001F00070BD2B466A68BAB11068A04210D304F1F2
:10020000080188423CBF5068586007D351681019F4
:1002100041601168091B016058601460101D70BDB9
:1002200013465268002AE7D12146284600F000F91B
:100230000028DED170BD70B50446051F00F0F0F84F
:100240000068002C14BF446870BD002C18BFAC427D
:100250003CBF20466468F8D301680A18AA4218BF58
:10026000456003D12A680546114401602868411998
:10027000A1421CBF6C6070BD616869602168084460
:10028000286070BD0FB41CB5074B06AA7B446946B5
:100290000090059800F075F90020694600F084F997
:1002A0001CBC5DF814FB0000190300002DE9F041AF
:1002B0000E460446002020622046E168884730B39D
:1002C000252805D0D4E901219047206A401CF2E797
:1002D000E168204600278847050018D0A5F14100B5
:1002E000192802D820354FF40067324629462046A7
:1002F0002760FFF735FF40B1012804D0F61D26F036
:1003000007060836D8E7361DD6E72846DAE7206A1A
:10031000BDE8F0812DE9F0410646002410687529FA
:10032000314616A510D0AFF30080002802DA404213
:1003300013A507E031688A0701D512A502E0490735
:1003400004D511A5012401E0AFF3008000210A22A9
:1003500006F1240709E0B0FBF2FCB0FBF2F302FB6C
:100360001C00303078541846491C0028F3D123462D
:100370002A463046BDE8F04100F0A4B80000000075
:100380002D0000002B0000002000000010B5431CD1
:1003900002E010F8011B71B18107FAD14FF0013270
:1003A00002C88C1A8C4314EAC211F9D0C01A0A068A
:1003B00003D0C01E10BDC01A10BD0A0401D0801E9B
:1003C00010BD0902FCD0401E10BD4FF0000200B568
:1003D000134694469646203922BFA0E80C50A0E868
:1003E0000C50B1F12001BFF4F7AF090728BFA0E816
:1003F0000C5048BF0CC05DF804EB890028BF40F8E2
:10040000042B08BF704748BF20F8022B11F0804F23
:1004100018BF00F8012B7047704770477047000005
:100420000048704780000020704770477047704751
:1004300038B504460A4600206946AFF3008000281C
:1004400008BF38BD02460099204600F0B7F80120E9
:1004500038BD012000F0CCB8F8B5AFF300800546F8
:1004600000200C46102000BF0646A819A0420DD956
:10047000324669460020AFF30080070008BF00F055
:10048000B7F80098A04218BF0546C419FFF7C8FF87
:1004900005600746F01D20F007004619284600F0C9
:1004A0000AF8B44208BFF8BDA21B31463868BDE85F
:1004B000F84000F083B800210160C0E901107047E6
:1004C000102070472DE9F0470D46994692460446A4
:1004D00000F124080168880604D5E06921F01001C4
:1004E000216000E00120A84201DD471B00E0002759
:1004F000A1697A1902EB0900081AA0612078C006E8
:1005000002D42046AFF30080002608E0D4E90121A0
:100510001AF806009047206A401C761C20624E455F
:10052000F4DB2078C0060AD52046AFF3008006E051
:10053000D4E9012130209047206A401C2062381EF7
:10054000A7F10107F4DC07E0D4E9012118F8050060
:100550009047206A401C2062281EA5F10105F3DCAB
:100560002046AFF300802078000602D50220BDE8C7
:10057000F0870120FBE7000001694A1C026108784E
:10058000704700B58FB0CDE90131002105910549D3
:100590007944CDE9031011466846FFF787FE0FB096
:1005A00000BD0000E5FFFFFF0A6802F8010B0A60CA
:1005B00070470000004870477800002003464068FC
:1005C0008C46002818BF88423CBF03464068F8D3D9
:1005D00018681844884207D00CF1030020F0070087
:1005E000001D411A521A0146081D0A60FFF723BE7A
:1005F00010B500F039F8BDE8104000F02FB8704792
:100600007546FFF7D7FFAE4605006946534620F012
:100610000700854618B020B5FFF7CCFDBDE82040A7
:100620004FF000064FF000074FF000084FF0000BAE
:1006300021F00701AC46ACE8C009ACE8C009ACE861
:10064000C009ACE8C0098D46704710B50446AFF349
:1006500000802046BDE81040FFF798BD002801D07B
:1006600000F02AB87047000010B5012805D000211D
:1006700003A000F027F8012010BD09A1F8E7000051
:1006800053494752544D454D3A204F7574206F667B
:100690002068656170206D656D6F727900000000E3
:1006A0003A2048656170206D656D6F727920636FC7
:1006B000727275707465640001491820ABBEFEE764
:1006C0002600020070B505460C460A2000E06D1CAD
:1006D00000F011F835B128780028F8D102E0641C48
:1006E00000F009F814B120780028F8D1BDE8704076
:1006F0000A20AFF3008008B569468DF8000003209A
:10070000ABBE08BD70B500240E4D0AE0002000F01D
:1007100041FF002000F03EFF002000F03BFF641C82
:10072000E4B228788442F1D30022A988A86800F0B6
:100730008EF9012000F016F8BDE87040142000F09A
:1007400011B8000000000020FEE77047012000F013
:100750007DB8022000F07AB8042000F077B872B6B5
:10076000FEE7000070B5044600F076F90546601C0F
:1007700002D004480078044400F06EF9401BA04207
:10078000FAD370BD0C00002070B51F4A1F4C012821
:1007900021D0002502282AD0042833D10421104674
:1007A00000F050F900282DD1A078401CC0B2A070F4
:1007B000042800D9A570A27815A11A48FFF762FD98
:1007C0001848FFF7E3FD174982B20A23BDE87040DD
:1007D000154800F0C9BC0121104600F033F900288B
:1007E00010D101200A2360700D2210A1EEE7022132
:1007F000104600F027F9002804D10A2365700F2263
:100800000EA1E3E770BD0000000C014000000020D5
:10081000446973706C6179204D6F6465203D2025BB
:10082000640D0A001C000020300000204469737031
:100830006C6179204F4E210D0A000000414C4C2084
:100840004C454473204F4646210D0A00044910B51B
:100850000A68024202D00860FFF796FF10BD000050
:10086000140401402DE9F84FDFF8B8910024A9F1F4
:10087000040B23460F2709F1040AABF1040EC9E06B
:100880000125A5402A40AA427DD1674ED1F804C077
:10089000ACEB0608B44532D014DCBCF1030F3AD0FF
:1008A00009DCBCF1000F2AD0BCF1010F1CD0BCF157
:1008B000020F31D11DE0BCF1110F17D0BCF1120FA6
:1008C0002AD119E0B8F5881F19D006DCB8F5803FA9
:1008D00015D0B8F5801F1FD111E0B8F5001F0ED05C
:1008E000B8F5041F18D10AE0CB6815E0CB681B1DD2
:1008F00012E0CB6808330FE0CB680C330CE08B6858
:100900002BB1012B4FF0080303D0456104E0042311
:1009100002E0056100E00023FF2A01D8064601E05D
:1009200000F104064FEA840501D9A5F12005D6F8A7
:10093000008007FA05FC28EA0C0803FA05F548EAE6
:100940000508C6F800804D68ED0062D5374DAE69E8
:1009500046F00106AE61AD6924F0030605F001051D
:100960000095334D06EB050CDCF80850A607360F52
:1009700007FA06F825EA0805DFF8B880404503D1F4
:100980004FF0000817E044E0DFF8AC80404502D1AA
:100990004FF001080FE0DFF8A480404502D14FF08E
:1009A000020808E0DFF89880404502D14FF00308C4
:1009B00001E04FF0040808FA06F848EA0508CCF808
:1009C00008804D68D9F80060ED024D4601D5164308
:1009D00000E096432E604D68DAF80060AD0255469F
:1009E00001D5164300E096432E604D68DBF80060A9
:1009F000AD035D4601D5164300E096432E604D6879
:100A0000DEF80060ED03754601D5164300E096431D
:100A10002E60641C0D682A46E5407FF431AFBDE8C6
:100A2000F88F00000804014000001110001002407F
:100A30000000014000080140000C0140001001408E
:100A4000001401408068084000D0012070470AB1BE
:100A5000016170470904FBE70148806870470000A6
:100A60000C000020024881680278114481607047C0
:100A70000C000020074810B5016841F0100101602A
:100A8000032000F075F80F2000F006F800F024F8BD
:100A9000002010BD0020024070B50D4D04464FF4FB
:100AA0007A712878B1FBF0F00A490968B1FBF0F0DF
:100AB00000F0DCFA48B9102C07D200222146501E63
:100AC00000F036F800206C6070BD012070BD0000A1
:100AD0000C000020180000200C4808B5816941F086
:100AE00001018161816901F001010091C16941F059
:100AF0008051C161C06900F0805000900448416895
:100B000021F0E06141F08061416008BD00100240C9
:100B100000000140002809DB00F01F020121914084
:100B20004009800000F1E020C0F80011704700008B
:100B3000F0B40E4B1B680C46C3F30223C3F1070548
:100B4000042D00D90425191D072901D2002300E036
:100B5000DB1E012606FA05F1491E214099409E4000
:100B6000761E16403143F0BC00F030BE0CED00E0C4
:100B7000064900F0070208684FF6FF03184040EAF4
:100B80000220034A10430860704700000CED00E0AB
:100B90000000FA052DE9F0470F46050061D0434EED
:100BA000306800F00700B84209D2306820F0070032
:100BB00038433060306800F00700B84251D12868EF
:100BC0003B4C810712D5400703D5606840F4E060D4
:100BD00060602878000703D5606840F4605060606A
:100BE0006068A96820F0F000084360602878C007BA
:100BF00028D06868012810D02168022810D0890701
:100C000000292EDA616821F0030101436160FFF7DA
:100C100023FF804641F288390DE021688903EFE720
:100C20008901EDE7FFF718FFA0EB0801494502D95C
:100C30000320BDE8F0876068696800F00C00B0EB45
:100C4000810FEFD1306800F00700B8420BD930684F
:100C500020F0070038433060306800F00700B842E9
:100C600001D00120E5E72878400705D56068E968EC
:100C700020F4E060084360602878000706D56068CB
:100C8000296920F4605040EAC100606000F038F843
:100C90006168084AC1F30311515CC8400649086005
:100CA00006480068FFF7F8FE0020C2E70020024077
:100CB000001002403E19000818000020100000201B
:100CC0000448054900684968044AC1F30221515C9F
:100CD000C840704718000020001002404E1900085C
:100CE0000448054900684968044AC1F3C221515CBF
:100CF000C840704718000020001002404E1900083C
:100D00000E4A51680E4801F00C03042B11D0082B39
:100D10000FD10C48C1F38343C903C05C0AD55168A5
:100D2000084AC1F34041921E515C054A5043B0FB52
:100D3000F1F070470449484370470000001002403A
:100D400000127A002E19000800093D002DE9F84F25
:100D5000040070D02078C04DC00749D06868C0F347
:100D60008100012807D06868C0F38100022809D1FA
:100D70006868C00306D52868800339D560680028F4
:100D8000E7D035E06068B0F5803F0BD010B1B0F52A
:100D9000A02F11D0286820F480302860286820F423
:100DA000802002E0286840F480302860606890B1BC
:100DB000FFF752FE06460AE0286840F480202860CB
:100DC000F0E700BFFFF748FE801B642873D828684F
:100DD0008003F7D50CE0FFF73FFE064605E000BFB5
:100DE000FFF73AFE801B6428F0D828688003F7D408
:100DF00020789A4E80074FF001094FF0000839D54E
:100E0000686810F00C0F07D06868C0F381000228F2
:100E100009D16868C00306D42868800714D5206902
:100E2000012808D110E02069B0B1C6F80090FFF7A2
:100E300013FE074605E00AE1FFF70EFEC01B02287D
:100E4000C4D828688007F7D52868616920F0F800C1
:100E500040EAC10028600DE0C6F80080FFF7FCFD05
:100E6000074604E0FFF7F8FDC01B022823D82868D6
:100E70008007F7D4207800072CD57948A169D9B12B
:100E8000C0F80090FFF7E8FD074604E0FFF7E4FD37
:100E9000C01B02280FD8686A8007F7D571484FF445
:100EA000FA510068B0FBF1F0009000BF0098411EBD
:100EB0000091FAD20EE080E0C0F80080FFF7CCFD90
:100EC000074604E0FFF7C8FDC01B022875D8686A12
:100ED0008007F7D42078400760D5E8690027C00074
:100EE00008D4E86940F08050E861E869012700F023
:100EF000805000905C480168C90513D4016883469E
:100F000041F480710160FFF7A7FD824606E000BF53
:100F1000FFF7A2FDA0EB0A0064284ED8DBF8000022
:100F2000C005F5D5E06801280AD008B1052813D01E
:100F3000286A20F001002862286A20F0040002E0FC
:100F4000286A40F001002862E06841F2883B98B1CD
:100F5000FFF782FD82460BE0286A40F00400286219
:100F6000EEE700BFFFF778FDA0EB0A0159455AD81C
:100F7000286A8007F6D50CE0FFF76EFD824605E093
:100F8000FFF76AFDA0EB0A0159454CD8286A800793
:100F9000F6D41FB1E86920F08050E861E06988B3B9
:100FA0006968C1F38101022944D00228C6F8608033
:100FB00004D0FFF751FD044638E034E0FFF74CFD64
:100FC000074604E0FFF748FDC01B02282BD828681D
:100FD0008001F7D4206AB0F5803F05D16868A16828
:100FE00020F4003008436860D4E9080108436968C8
:100FF00021F4741108436860C6F86090FFF72CFD77
:10100000044606E025E000BFFFF726FD001B02288E
:1010100009D828688001F7D51BE000BFFFF71CFD49
:10102000001B022802D90320BDE8F88F2868800140
:10103000F4D40EE00128F7D06868226A00F4803109
:10104000914204D1616A00F47010884201D00120FD
:10105000EAE70020E8E700000010024000004242FA
:1010600080044242180000200070004010B5401E6D
:10107000B0F1807F01D3012010BD4FF0E02460610A
:101080000F21601700F0A2FB0020A0610720206163
:10109000002010BD70B5040004D094F84100002574
:1010A00010B106E0012070BD84F84050204600F0E9
:1010B00023F8242084F841002068C16821F40051FD
:1010C000C160204600F0ECFA2068016921F49041EB
:1010D00001612068416921F02A0141612068C168ED
:1010E00041F40051C1606564202084F8410084F817
:1010F00042006563002070BD30B585B000240094C7
:1011000001940294039400681449884224D114483D
:10111000816941F480418161816901F480410491D8
:10112000816941F00401816180690E4D00F0040085
:1011300004904FF40070009002200190032003906F
:1011400069462846FFF78EFB2815CDE9000469465D
:1011500028460294FFF786FB05B030BD00380140F9
:1011600000100240000801402DE9F843044690F8C1
:101170004100984616460D46202802D00220BDE8C0
:10118000F88385B17EB100206064212084F841009D
:10119000FFF762FCA6848146E684A0682027B0F5AC
:1011A000805F02D003E00120E9E7206910B12E46FC
:1011B00000250EE000260CE08021204600F0CCFA4D
:1011C000A8B9C6B116F8010B21684860E08C401E32
:1011D000E084E08C4B464FF00002CDF80080002800
:1011E000EAD14FF04001204600F0B6FA40B184F851
:1011F00041700320C3E735F8020BC0F30800E3E7B2
:1012000084F841700020BAE72DE9F043DDE9075486
:1012100071B33C27B0FBF7F606F0FF09B0FBF7F619
:1012200007FB160C01FB0CF6C1F1FF004FF0FF08A5
:10123000CCF13C0C0CFB01FCB6FBF7F69CFBF7F188
:10124000C6F1FF06C1F1FF01504356435143B0FBC5
:10125000F8F096FBF8F691FBF8F1C0B2F6B2C9B21D
:10126000B9F1050F1AD2DFE809F006090E121500D0
:101270001A702A7010E01A70297001E01E702A702E
:101280002070BDE8F08318702A702170F9E718709B
:101290002E7001E0197028702270F2E71A70287021
:1012A0002670EEE7FEE700002DE9F04186B000254C
:1012B00036480095019502950395816941F010012A
:1012C0008161816901F010010491816941F020017F
:1012D0008161816901F020010491816941F0080177
:1012E0008161816901F008010491816941F0040183
:1012F00081618069264F00F004004FF4005404908F
:10130000002221463846FFF7A2FBDFF888804FF421
:101310004076012231464046FFF799FB0220CDE995
:10132000025000940124694601943846FFF79AFA66
:10133000072000901848CDE9010469464046FFF7B0
:1013400091FA0320CDE90240CDE9006469464046A8
:10135000FFF788FA002211460620FFF7E9FB062076
:10136000FFF7D8FB002211460720FFF7E1FB07201B
:10137000FFF7D0FB002211460820FFF7D9FB082019
:10138000FFF7C8FB06B0BDE8F08100000010024086
:1013900000100140000C0140000021100C4810B565
:1013A0000A4901604FF4E1314160002181600C2263
:1013B000C160C0E904128161C161FFF76BFE0028C2
:1013C00003D0BDE81040FFF7CAB910BD0038014096
:1013D00030000020FEE7FEE7704700002DE9F047EF
:1013E0001D4D8046174668780E46012832D10024EC
:1013F00023E0002014E000BF18F82010A1420DD116
:1014000008EB800191F80190887891F803A000F032
:10141000C1F8484600F0BEF850460AE0401CC0B291
:10142000B042E9D3002000F0B5F8002000F0B2F897
:10143000002000F0AFF8641CE4B2BC42D9D3002213
:10144000A988A868FFF703FBBDE8F0474FF4967042
:1014500000F0CCB9BDE8F087000000202DE9FC4782
:101460002B4C0026354620788000FEF7B5FE074657
:10147000A0464FF4B47900BF98F80110012904D0B8
:101480003846BDE8FC47FEF7D6BE002425E000BF85
:1014900007F82440A01B00D54042C0B2032805D85D
:1014A000A0EBC00000EB8000FF3000E00020C2B2E3
:1014B00004EB840005EB8001B1FBF9F309FB131089
:1014C00007EB840303F1030C991CCDE9001CFF21F9
:1014D0005B1CFFF799FE641CE4B298F8000084429C
:1014E000D6D398F80020444611463846FFF776FFD9
:1014F0006420FFF737F92078761CB6FBF0F100FB8B
:1015000011606D1DB5FBF9F109FB1155C6B2B3E7CA
:10151000000000202DE9F0411D4C002520788000BE
:10152000FEF75AFE06466078012804D03046BDE832
:10153000F041FEF780BE0021237816E006F8211066
:10154000481B00D54042C0B2032805D8A0EBC0001C
:1015500000EB8000FF3000E00020002706EB810256
:10156000491C57709070D770C9B29942E6D322785F
:1015700030461146FFF732FF6420FFF7F3F820787A
:101580006D1CB5FBF0F100FB1150C5B2CBE70000BC
:101590000000002070B5144D0024064606FA04F041
:1015A00010F0800FA988A8684FF001020BD0FFF758
:1015B0004EFA022000F01AF90022A988A868FFF765
:1015C00046FA00BF0AE0FFF742FA00BF0022A988EE
:1015D000A868FFF73CFA022000F008F9641CE4B2A6
:1015E000082CDBD370BD0000000000207047FFF71F
:1015F00039BA30B58FB028216846FEF7E6FE1421CF
:101600000AA8FEF7E2FE01210804CDE9001000243B
:10161000029402250491CDE907504FF4E01009909F
:101620006846FFF793FB08B172B6FEE70F20CDE9DD
:101630000A054FF48060CDE90C4002210AA80E94FF
:10164000FFF7A8FA002801D072B6FEE70FB030BD50
:10165000704701680C3151E8002F22F4907241E884
:101660000023002BF5D10168143151E8002F22F03E
:10167000010241E80023002BF5D1016B012909D1BA
:1016800001680C3151E8002F22F0100241E80023DC
:10169000002BF5D1202180F8421000210163704712
:1016A00070B5044600680169E26821F440511143B5
:1016B00001612169A0680843616908432168CA681B
:1016C00041F20C639A430243CA6020684169A269EF
:1016D00021F44071114341611E492068884202D1C2
:1016E000FFF7FEFA01E0FFF7EBFA00EBC00101EBB8
:1016F0000012606864218000B2FBF0F3B3FBF1F3E9
:101700006FF018067343B2FBF0F5B2FBF0F605EB91
:101710008305322303EB0515B5FBF1F5B6FBF1F6B6
:1017200005F0F00505EB0615B2FBF0F6B2FBF0F0A4
:10173000B0FBF1F06FF01802504306EB800003EBB2
:101740000010B0FBF1F0216800F00F002844886021
:1017500070BD0000003801402DE9F8439846174657
:101760000D460446089E24E0701C22D0FFF774F951
:10177000A0EB0800B0421AD8CEB12068C168490772
:1017800017D5802D15D0402D13D00168C943090706
:101790000FD401680025406800902046FFF759FFEC
:1017A0000820606484F840500120BDE8F8830320DD
:1017B000FBE72068006835EA000004D00020B8424A
:1017C000D2D00020F1E70120F9E7FEE70907090E72
:1017D000002804DB00F1E02080F80014704700F0DE
:1017E0000F0000F1E02080F8141D704700EB80002E
:1017F000400000BF401EFCD27047000088B0FFF7D9
:1018000039F9FFF7F6FEFFF74FFDFFF7C7FD314847
:101810000DF1100C1EC88DE81E000FC88CE80F00DB
:101820000A230E222CA13048FFF79EFC2F4C30A13A
:101830003448A278FEF726FD3248FEF7A7FD82B2B3
:101840000A2330492848FFF78FFC2F4DAF156E153E
:10185000607801280ED0A560A780FEF753FFC8204E
:10186000FEF780FFA560A680FEF74CFFC820FEF7BC
:1018700079FFEDE7A078E0B101281DD002281ED045
:10188000032821D00428F1D1A5604FF49678A680D2
:101890004046FEF767FF082204216846FFF79EFDD9
:1018A0004046FEF75FFF0822042104A8FFF796FDDB
:1018B000DCE7A560A78004E0A560A68006E0A5603F
:1018C000A680FFF7CBFDD1E7A560A780FFF722FE3A
:1018D000CCE700000C1900084C45447320446973A0
:1018E000706C6179210D0A0030000020000000209A
:1018F000446973706C6179204D6F6465203D2025CB
:10190000640D0A001C000020000C014000FFFF00D5
:10191000020000FF0488FF8806FF00FF0100FF00AF
:1019200003FF000005AAAAFF0700FFFF0102020350
:101930000405060708090A0B0C0D0E0F1010000015
:10194000000000000000010203040607080900006F
:1019500000000102030400007819000800000020C4
:101960001C00000028010008941900081C00002039
:10197000BC0600004401000808000000000200004E
:10198000000C0140010000001000000000000000F9
:0419900000127A00C7
:04000005080000ED02
:00000001FF
